:020000040800F2
:10000000C0070020D90100083178000849410008E4
:100010002D780008D9070008058B000800000000B3
:10002000000000000000000000000000A5780008AB
:100030009509000800000000A1780008FD7800087C
:10004000F3010008F3010008F3010008F3010008C0
:10005000F3010008F3010008F3010008F3010008B0
:10006000F3010008F3010008F3010008DD070008B0
:10007000F3010008F3010008F3010008F301000890
:10008000F3010008F3010008F3010008F301000880
:10009000F3010008F3010008F3010008F301000870
:1000A000F3010008F3010008F3010008F301000860
:1000B000D5790008F3010008F3010008F3010008F6
:1000C000F3010008F3010008F3010008F301000840
:1000D000F3010008F3010008F3010008F301000830
:1000E00099090008F3010008F3010008F301000872
:1000F000F3010008F3010008F3010008ED07000810
:10010000F3010008F3010008F3010008F3010008FF
:10011000F301000891820008F3010008F3010008D0
:10012000F3010008F3010008F3010008F3010008DF
:10013000F30100080000000000000000F3010008C7
:10014000F3010008F3010008F3010008F3010008BF
:10015000F3010008F3010008F3010008F3010008AF
:10016000F3010008F3010008F3010008F30100089F
:10017000F3010008F3010008F3010008000000008B
:1001800000000000F3010008000000000000000073
:10019000F30100080000000000000000F301000867
:1001A000000000000000000000000000F301000853
:1001B000F3010008F3010008F3010008F30100084F
:1001C000F3010008DFF80CD000F0F4FA0048004713
:1001D0008D9F0008C007002006488047064800475A
:1001E000FEE7FEE7FEE7FEE7FEE7FEE7FEE7FEE7E7
:1001F000FEE7FEE7C1790008C50100082DE9F05FC0
:100200000546002092469B46884606468146402485
:100210001BE0284641464746224600F01CFA53465A
:100220005A46C01A914110D311461846224600F092
:1002300003FA2D1A67EB01084F46224601200021E0
:1002400000F0FAF917EB00094E41201EA4F1010459
:10025000DFDC484631462A464346BDE8F09F0000B1
:100260000649074A0868504343F2390210440860BF
:1002700040087047014908607047000000000020F6
:100280006D4EC641002800DA40427047D2B201E00C
:1002900000F8012B491EFBD270470022F6E710B58B
:1002A00013460A4604461946FFF7F0FF204610BDE4
:1002B0002DE9FE4F804681EA0300C00F0C460090F6
:1002C00021F0004123F00045B8EB0200A94105D21E
:1002D0004046214690461C460B46024623F000400D
:1002E000104347D0270DC7F30A00C3F30A51029009
:1002F000401A019040286BDAC3F3130040F4801BCE
:100300000098924620B10023D2EB030A63EB0B0B5B
:1003100001985946C0F14002504600F08DF906465A
:100320000D4650465946019A00F0A5F910EB080019
:100330006141002487EA115284EAE7731A4340D0EE
:10034000009A62B3019A012A4FEA075215DC001B9A
:1003500061EB02014FF0004202EA0752CDE9004290
:10036000001C41F5801132462B4600F0A5F903B080
:10037000BDE8F08F40462146F9E7001B61EB020122
:10038000001C41F5801300185B412018A2F50017EE
:1003900047EB030140EAD570B6196D4111E06D08D5
:1003A0004FEA360645EAC0754FEA0752001B61EB7B
:1003B0000201001C41F5801149084FEA3000001984
:1003C000514132462B4603B0BDE8F04F00F065B90D
:1003D0000098012240000023D0EB020263EBE0739F
:1003E000009821464FEAE074B8EB000061EB04018D
:1003F000E9E783F000435BE781F0004158E72DE92E
:10040000FE4F81EA030404F0004421F0004100940F
:100410004FF0000B23F0004350EA01045ED052EA93
:1004200003045BD0C3F30A54C1F30A552C44A4F26D
:10043000F3340194A0FB0254C1F3130141F4801181
:10044000C3F3130343F4801301FB024400FB034E88
:10045000840A970A44EA815447EA8357A4FB076851
:1004600002958D0A05FB07854FEA932C04FB0C547B
:100470002705029D4FEA065847EA1637B5EB0805EF
:100480006EEB070C870E920E47EA811742EA831241
:10049000A7FB0201B6EB0B0164EB00042B0D43EA52
:1004A0000C335E1844EB1C50DA465146E7FB020160
:1004B000C5F313044FEA0B3343EA14534FEA0432F3
:1004C000019C43EA0603A4F10C040294009CCDE9CC
:1004D00000B400F0F1F803B0BDE8F08F0020014651
:1004E000F9E72DE9F04D81EA030404F0004B21F017
:1004F000004514464FF0000A23F0004150EA05027F
:1005000020D054EA01021DD0C5F30A570246C5F3B4
:100510001303C1F31300C1F30A5640F4801543F4EA
:100520008013A7EB0608101BD64608F2FD3873EBC4
:10053000050002D308F1010801E092185B41B8F10F
:10054000000F03DA00200146BDE8F08D00204FF4D3
:100550008011064684460EE0171B73EB050705D392
:10056000121B63EB050306434CEA010C49084FEAF2
:10057000300092185B4150EA0107EDD152EA0300C6
:1005800012D082EA040083EA0501084305D0101B5B
:10059000AB4106D20122002306E000224FF00043C7
:1005A00002E06FF0010253101AEB06004CEB085109
:1005B00010EB0A0041EB0B01BDE8F04D00F06DB807
:1005C0000EB540F2334102910021CDE900110A46F7
:1005D0000B4600F071F803B000BDC1F30A5210B52C
:1005E000C1F3130140F2FF3341F480119A4201DA62
:1005F000002010BD40F233439A42A2F2334203DCA2
:10060000524200F028F810BD904010BD30B50B46A6
:10061000014600202022012409E021FA02F59D4232
:1006200005D303FA02F5491B04FA02F52844151E06
:10063000A2F10102F1DC30BD202A04DB203A00FAED
:1006400002F1002070479140C2F1200320FA03F329
:10065000194390407047202A04DB203A21FA02F027
:100660000021704721FA02F3D040C2F120029140EC
:10067000084319467047202A06DBCB17203A41FA77
:1006800002F043EAE07306E041FA02F3D040C2F11F
:100690002002914008431946704710B5141E73F1AB
:1006A000000408DA401C41F1000192185B411A4332
:1006B00001D120F0010010BD2DE9F04D92469B467E
:1006C00011B1B1FA81F202E0B0FA80F22032904624
:1006D000FFF7B2FF04460F4640EA0A0041EA0B0169
:1006E00053465A46084313D0114653EA010019D025
:1006F000C8F140025046FFF7AEFF05460E46504691
:1007000059464246FFF798FF084305D0012004E010
:1007100020463946BDE8F08D0020054346EAE076E4
:100720002C4337430A986305E40AA0EB0800002233
:10073000FD0A44EA47540A3002D500200146E9E7A1
:10074000010510196941DDE9084500196941BDE855
:10075000F04DA2E7C1F30A52C1F3130140F2FF3397
:1007600041F480119A4202DA00200146704740F2BB
:1007700033439A42A2F2334202DC5242FFF76BBF8C
:10078000FFF75ABF30B5041E71F1000404DB4FF0CF
:100790000044404264EB0101141E73F1000405DBC8
:1007A0001C464FF00043524263EB0403994208BFDA
:1007B000904230BD064C074D06E0E06840F0010372
:1007C00094E8070098471034AC42F6D3FFF7FEFCDC
:1007D00048BC000868BC0008FFE7FEE780B540F2AF
:1007E0009C10C2F2000000F081F980BD80B540F29B
:1007F000FC10C2F2000000F079F980BD82B00190D7
:100800000198007810384AF6AB21CAF6AA21A0FB5D
:1008100001100009009000994BF25420C0F600002E
:10082000405C0199C8650098042807D3FFE7019947
:100830000868042262F30900886506E001990868E7
:1008400040F2FF3290438865FFE70198806D02B067
:100850007047000086B0059000208DF813000598C1
:10086000806A03900598806910BBFFE703980290A7
:1008700003281BD80299DFE801F0020D0218059841
:1008800090F82F00C00720B1FFE701208DF813007A
:10089000FFE70CE00598C06AB0F1C07F04D1FFE724
:1008A00001208DF81300FFE701E000E0FFE745E0DD
:1008B00005988069B0F5005F25D1FFE703980190A6
:1008C00003281ED80199DFE801F002060211012079
:1008D0008DF8130016E0059890F82F00C00720B19E
:1008E000FFE701208DF81300FFE70BE00598C06AD1
:1008F000B0F1C07F04D1FFE701208DF81300FFE7BE
:1009000000E0FFE719E003980090032804D3FFE715
:100910000098032804D00EE001208DF813000BE0AE
:10092000059890F82F00C00720B1FFE701208DF84F
:100930001300FFE700E0FFE7FFE7FFE79DF8130084
:1009400006B0704784B0039002910192009303981F
:100950000168086820F480200860009803990968FD
:10096000486003988068402809D1FFE701980399FF
:1009700009688860029803990968C86008E00298CD
:10098000039909688860019803990968C860FFE7BE
:1009900004B070477047000080B54FF4805000F0FD
:1009A000A1FB4FF4005000F09DFB80BD81B0EFF340
:1009B000108072B60090FFE7FEE7000080B584B0BB
:1009C00002900298806D019000F0A6FD00900298C0
:1009D00090F8350002280DD0FFE702998020486585
:1009E000FFE70299002081F83400FFE701208DF82D
:1009F0000F0055E002980168086820F016000860B2
:100A000002980168486920F0800048610298006CF3
:100A100020B9FFE70298806C38B1FFE702980168BF
:100A2000086820F008000860FFE70298016808687D
:100A300020F001000860FFE7029800680068C00726
:100A4000C8B1FFE700F068FD0099401A062811D3ED
:100A5000FFE70299202048650299032081F83500BC
:100A6000FFE70299002081F83400FFE703208DF8AA
:100A70000F0015E0E0E70298C16D3F208840019922
:100A800088600299012081F83500FFE70299002073
:100A900081F83400FFE7FFE700208DF80F00FFE743
:100AA0009DF80F0004B080BD82B00090009890F8CF
:100AB0003500022807D0FFE7009980204865012013
:100AC0008DF807000EE00099052081F835000098A8
:100AD0000168086820F001000860FFE700208DF839
:100AE0000700FFE79DF8070002B0704780B586B0A9
:100AF00005900020039040F20C00C2F20000006854
:100B000048F2B511C1F64E31A0FB0110800A0290E7
:100B10000598806D019001980068049004980599EB
:100B2000C96DC840000700281AD5FFE7059800687E
:100B300000684007002812D5FFE70598016808689B
:100B400020F0040008600598C16D082088400199D4
:100B500088600599486D40F001004865FFE7FFE7B0
:100B600004980599C96DC840C007A0B1FFE7059872
:100B700000684069000600280CD5FFE70598C16DA4
:100B800001208840019988600599486D40F0020075
:100B90004865FFE7FFE704980599C96DC84040071D
:100BA000002814D5FFE70598006800688007002832
:100BB0000CD5FFE70598C16D042088400199886035
:100BC0000599486D40F004004865FFE7FFE7049889
:100BD0000599C96DC840C006002847D5FFE70598AC
:100BE00000680068000700283FD5FFE70598C16D41
:100BF00010208840019988600598006800684003CB
:100C000000281AD5FFE7059800680068000300284F
:100C100009D4FFE70598006C20B1FFE70598016C47
:100C20008847FFE708E00598806C20B1FFE705984A
:100C3000816C8847FFE7FFE716E0059800680068C9
:100C4000C005002807D4FFE705980168086820F070
:100C500008000860FFE70598006C20B1FFE70598E1
:100C6000016C8847FFE7FFE7FFE7FFE70498059976
:100C7000C96DC8408006002840F18D80FFE70598C7
:100C800000680068C006002840F18480FFE70598EE
:100C9000C16D2020884001998860059890F8350042
:100CA000052834D1FFE705980168086820F0160090
:100CB000086005980168486920F08000486105983F
:100CC000006C20B9FFE70598806C38B1FFE7059804
:100CD0000168086820F008000860FFE70598C16D0A
:100CE0003F208840019988600599012081F83500EE
:100CF000FFE70599002081F83400FFE70598006DB3
:100D000020B1FFE70598016D8847FFE77BE0059874
:100D100000680068400300281AD5FFE705980068BE
:100D200000680003002809D4FFE70598406C20B153
:100D3000FFE70598416C8847FFE708E00598C06B1E
:100D400020B1FFE70598C16B8847FFE7FFE720E088
:100D5000059800680068C005002811D4FFE70598D1
:100D60000168086820F0100008600599012081F8EA
:100D70003500FFE70599002081F83400FFE7FFE721
:100D80000598C06B20B1FFE70598C16B8847FFE766
:100D9000FFE7FFE7FFE70598406DA0B3FFE7059881
:100DA000406DC00730B3FFE70599052081F8350095
:100DB00005980168086820F001000860FFE70398C3
:100DC000013003900299884201D9FFE707E0FFE76D
:100DD000059800680068C0070028F0D1FFE7059972
:100DE000012081F83500FFE70599002081F83400E3
:100DF000FFE7FFE70598C06C20B1FFE70598C16CDD
:100E00008847FFE7FFE706B080BD000080B586B0E9
:100E100004900020039000F07FFB0290049820B91A
:100E2000FFE701208DF81700A3E00498406A08B19D
:100E3000FFE7FFE70499022081F83500FFE70499F6
:100E4000002081F83400FFE704980168086820F06A
:100E500001000860FFE7049800680068C00790B1CF
:100E6000FFE700F059FB0299401A06280AD3FFE772
:100E70000499202048650499032081F835008DF8F5
:100E8000170076E0E7E7049800680068039003988D
:100E900048F23F01CFF210010840039004990091FD
:100EA0004868D1F808C0CB680A6940EA0C001843CA
:100EB00010434A6910438A691043CA691043096A9A
:100EC00001430398084303900498406A042808D11A
:100ED000FFE70499C86A096B01430398084303902C
:100EE000FFE703980499096808600498006840695E
:100EF0000390039820F0070003900498416A039838
:100F0000084303900498406A04281AD1FFE7049824
:100F1000816A0398084303900498C06A80B1FFE790
:100F20000498FFF797FC50B1FFE70499402048650B
:100F30000499012081F835008DF8170019E0FFE7CA
:100F4000FFE703980499096848610498FFF756FC85
:100F500001900498C16D3F208840019988600499F0
:100F600000204865049A012182F835108DF8170099
:100F7000FFE79DF8170006B080BD000080B588B07F
:100F8000069005910492039300208DF80B000698BB
:100F9000806D0190FFE7069890F83400012804D195
:100FA000FFE702208DF81F0045E00699012081F837
:100FB0003400FFE7FFE7069890F8350001282BD1B1
:100FC000FFE70699022081F8350006990020486560
:100FD00006980599049A039BFFF7B4FC0698C16D27
:100FE0003F2088400199886006980168086840F0B1
:100FF000160008600698006C38B1FFE70698016893
:10100000086840F008000860FFE706980168086873
:1010100040F00100086009E0FFE70699002081F830
:101020003400FFE702208DF80B00FFE79DF80B006E
:101030008DF81F00FFE79DF81F0008B080BD00007D
:1010400080B584B0039000F067FA02900398019095
:101050000198013048B1FFE740F22800C2F20000D9
:101060000178019808440190FFE7FFE700F054FA87
:101070000299401A0199884201D2FFE7F6E704B0CD
:1010800080BD000080B582B0ADF806000020C4F23B
:1010900002004FF4805100F00FFA014640F2B430E4
:1010A000C2F200000160006840B9FFE740F25C2036
:1010B000C2F200000C2102F04BF910E040F2B43013
:1010C000C2F200000068012808D1FFE740F25C206E
:1010D000C2F200000C2102F021FAFFE7FFE702B0A4
:1010E00080BD000080B582B0ADF8060043F6144024
:1010F000C4F201000068BDF8061008420CD0FFE7FA
:10110000BDF8060043F61441C4F201010860BDF8C1
:101110000600FFF7B7FFFFE702B080BD8DB00C906F
:101120000B9100200990089007900A90FFE70A9819
:101130000F2800F2BE81FFE70A990120884009903C
:101140000B98006809990840089008980999884206
:1011500040F0AA81FFE70B98406800F003000128E7
:1011600007D0FFE70B98406800F0030002282FD15A
:10117000FFE70C98806807900A984100032000FA66
:1011800001F10798884307900B98C0680A994900B5
:1011900000FA01F107980843079007980C998860B6
:1011A0000C98406807900A99012000FA01F107980D
:1011B000884307900B984068C0F300100A9900FA22
:1011C00001F107980843079007980C994860FFE7DA
:1011D0000B98406800F00300032818D0FFE70C9834
:1011E000C06807900A984100032000FA01F10798AF
:1011F000884307900B9880680A99490000FA01F12A
:1012000007980843079007980C99C860FFE70B9868
:10121000406800F00300022826D1FFE70C980A99E5
:101220006FF0030202EA51010844006A07900A982D
:1012300000F0070081000F2000FA01F107988843B1
:1012400007900B9800690A9901F00701890000FADC
:1012500001F107980843079007980C990A9B02EA46
:10126000530211440862FFE70C98006807900A983F
:101270004100032000FA01F10798884307900B987A
:10128000406800F003000A99490000FA01F107984C
:101290000843079007980C9908600B98807980079D
:1012A000002800F00081FFE7FFE70020069043F6EA
:1012B0004400C4F20200016841F48041016000680A
:1012C00000F4804006900698FFE70A9820F003009B
:1012D00043F60801C4F20101405807900A9800F053
:1012E000030081000F2000FA01F10798884307905E
:1012F0000C980021C4F20201884203D1FFE70020CC
:10130000059050E00C9840F20041C4F2020188427E
:1013100003D1FFE70120049042E00C9840F6000161
:10132000C4F20201884203D1FFE70220039034E0B7
:101330000C9840F60041C4F20201884203D1FFE755
:101340000320029026E00C9841F20001C4F2020151
:10135000884203D1FFE70420019018E00C9841F285
:101360000041C4F20201884203D1FFE7052000904A
:101370000AE00C9941F60002C4F2020207209142F1
:1013800008BF06200090FFE700980190FFE7019852
:101390000290FFE702980390FFE703980490FFE7AD
:1013A00004980590FFE70598C0B20A9901F003017F
:1013B000890000FA01F107980843079007980A99F5
:1013C00021F0030143F60802C4F20102885043F6FB
:1013D0000840C4F201000068079008990798884304
:1013E00007900B988079C006002805D5FFE708997B
:1013F000079808430790FFE7079843F60841C4F2AF
:101400000101086043F60C40C4F201000068079037
:1014100008990798884307900B98807980060028E0
:1014200005D5FFE70899079808430790FFE7079855
:1014300043F60C41C4F20101086043F60440C4F2D3
:1014400001000068079008990798884307900B9857
:1014500080798007002805D5FFE708990798084399
:101460000790FFE7079843F60441C4F201010860C2
:1014700043F60040C4F201000068079008990798FD
:10148000884307900B988079C00728B1FFE7089937
:10149000079808430790FFE7079843F60041C4F216
:1014A00001010860FFE7FFE7FFE70A9801300A90B3
:1014B0003DE60DB07047000082B00190ADF802101B
:1014C00001980069BDF80210084204D0FFE701202E
:1014D0008DF8010003E000208DF80100FFE79DF882
:1014E000010002B07047000082B00190ADF8021018
:1014F0008DF801209DF8010028B1FFE7BDF802003A
:101500000199886105E0BDF8020000040199886135
:10151000FFE702B07047000040F2B030C2F20000B6
:101520000068704740F22800C2F20000027840F2E2
:10153000B031C2F200010868104408607047000032
:1015400080B582B043F60041C4F20201086840F45D
:1015500000700860086840F480600860086840F423
:1015600080700860032000F08FF80020019000F0E8
:1015700005F800F03BF8019802B080BD80B582B05C
:10158000009040F20C00C2F20000006840F2280116
:10159000C2F200010A784FF47A71B1FBF2F1B0FBAC
:1015A000F1F000F0B3FE20B1FFE701208DF8070055
:1015B00018E000980F280DD8FFE700994FF0FF3092
:1015C000002200F047F8009840F22C01C2F200011E
:1015D000086003E001208DF8070003E000208DF88B
:1015E0000700FFE79DF8070002B080BD80B582B01C
:1015F000FFE70020019043F64400C4F202000168B6
:1016000041F480410160006800F48040019001983D
:10161000FFE7FFE70020009043F64000C4F202001D
:10162000016841F080510160006800F08050009036
:101630000098FFE7072000F027F802B080BD000007
:1016400080B582B08DF807009DF9070007F03CFCDB
:1016500002B080BD80B586B08DF81700049103926A
:101660000020029007F048FC02909DF917000190BD
:1016700002980499039A06F0DDF80146019807F0F4
:1016800043FC06B080BD000080B582B00190019897
:1016900007F05CFC02B080BD80B584B0029001917F
:1016A000029820B9FFE701208DF80F0021E1019891
:1016B00043F60041C4F20201096801F00F018842BB
:1016C00012D9FFE7019943F60040C4F2020001700D
:1016D000006800F00F000199884204D0FFE7012064
:1016E0008DF80F0005E1FFE70298007880070028D9
:1016F0002AD5FFE7029800784007002809D5FFE7C0
:1017000043F60801C4F20201086840F4E0500860A2
:10171000FFE7029800780007002809D5FFE743F6A5
:101720000801C4F20201086840F460400860FFE765
:1017300043F60801C4F20201086820F0F000029AA2
:10174000926810430860FFE702980078C0070028FD
:101750006ED0FFE702984068012811D1FFE743F6F9
:101760000000C4F20200006800F400310020B0EB79
:10177000514F04D1FFE701208DF80F00B9E02CE0B4
:1017800002984068022805D0FFE7029840680328C5
:1017900011D1FFE743F60000C4F20200006800F038
:1017A00000710020B0EB516F04D1FFE701208DF8EC
:1017B0000F009EE010E043F60000C4F20200006853
:1017C00000F002010020B0EB510F04D1FFE701202F
:1017D0008DF80F008DE0FFE7FFE743F60801C4F244
:1017E0000201086820F00300029A52681043086062
:1017F000FFF792FE0090FFE743F60800C4F20200F4
:10180000006800F00C0002994968B0EB810F0ED01F
:10181000FFE7FFF781FE0099401A41F289318842C3
:1018200004D3FFE703208DF80F0062E0E4E7FFE751
:10183000019843F60041C4F20201096801F00F016A
:10184000884212D2FFE7019943F60040C4F2020039
:101850000170006800F00F000199884204D0FFE792
:1018600001208DF80F0044E0FFE702980078400760
:1018700000280CD5FFE743F60801C4F2020108680E
:1018800020F4E050029AD26810430860FFE7029803
:101890000078000700280DD5FFE743F60801C4F2E1
:1018A0000201086820F46040029A126940EAC2000E
:1018B0000860FFE700F04CF843F60801C4F20201AB
:1018C0000968C9B20A094BF23C21C0F60001895CE3
:1018D000C84040F20C01C2F20001086040F22C0046
:1018E000C2F200000068FFF749FE00208DF80F00EB
:1018F000FFE79DF80F0004B080BD000040F20C002F
:10190000C2F200000068704780B5FFF7F7FF43F6AA
:101910000801C4F202010968C1F382224BF24C2192
:10192000C0F60001895CC84080BD000080B5FFF7AB
:10193000E5FF43F60801C4F20201096889B24A0BC7
:101940004BF24C21C0F60001895CC84080BD00000C
:1019500080B586B00020059004900390029001901D
:1019600043F60800C4F20200006800F00C000146D3
:1019700000910C2800F29B800099DFE801F00798A5
:1019800098980D98989813989898570042F20040AC
:10199000C0F2F400019090E041F20020C0F27A0021
:1019A00001908AE043F60400C4F20200016801F0ED
:1019B0003F01059100684002002813D5FFE743F678
:1019C0000400C4F202000068C0F3881041F2002154
:1019D000C0F27A01A0FB0101059A0023FEF70EFC7C
:1019E000049012E043F60400C4F202000068C0F361
:1019F000881042F20041C0F2F401A0FB0101059AF7
:101A00000023FEF7FBFB0490FFE743F60400C4F25B
:101A10000200006800F44031022000EBD130039056
:101A200004980399B0FBF1F0019046E043F60400FE
:101A3000C4F20200016801F03F0105910068400214
:101A4000002813D5FFE743F60400C4F20200006843
:101A5000C0F3881041F20021C0F27A01A0FB01011D
:101A6000059A0023FEF7CAFB049012E043F6040037
:101A7000C4F202000068C0F3881042F20041C0F2D4
:101A8000F401A0FB0101059A0023FEF7B7FB0490C7
:101A9000FFE743F60400C4F202000068C0F30270DE
:101AA000029004980299B0FBF1F0019005E042F237
:101AB0000040C0F2F4000190FFE7019806B080BD3D
:101AC00080B586B00490049820B9FFE701208DF816
:101AD000170084E304980078C007002800F0BA805B
:101AE000FFE743F60800C4F20200006800F00C00B3
:101AF000042828D0FFE743F60800C4F2020000687B
:101B000000F00C0008280BD1FFE743F60400C4F2F4
:101B10000200006800F48000B0F5800F13D0FFE7EA
:101B200043F60800C4F20200006800F00C000C2824
:101B30001ED1FFE743F60400C4F202000068400231
:101B4000002815D5FFE743F60000C4F20200006844
:101B500000F400310020B0EB514F08D0FFE70498AB
:101B6000406820B9FFE701208DF8170037E370E0E7
:101B7000FFE704984068B0F5803F09D1FFE743F6DE
:101B80000001C4F20201086840F48030086020E0DF
:101B900004984068B0F5A02F0DD1FFE743F600018F
:101BA000C4F20201086840F480200860086840F42C
:101BB000803008600CE043F60001C4F202010868BE
:101BC00020F480300860086820F480200860FFE777
:101BD000FFE7FFE704984068E8B1FFE7FFF79CFCE8
:101BE0000390FFE743F60000C4F20200006800F42F
:101BF00000310020B0EB514F0CD1FFE7FFF78CFC18
:101C00000399401A652804D3FFE703208DF81700D5
:101C1000E5E2E7E71CE0FFF77FFC0390FFE743F610
:101C20000000C4F20200006800F400310020B0EBB4
:101C3000514F0CD0FFE7FFF76FFC0399401A65285E
:101C400004D3FFE703208DF81700C8E2E7E7FFE7BA
:101C5000FFE7FFE7049800788007002840F1A9809B
:101C6000FFE743F60800C4F20200006810F00C0F12
:101C700026D0FFE743F60800C4F20200006800F037
:101C80000C00082809D1FFE743F60400C4F2020063
:101C900000684002002813D5FFE743F60800C4F2AD
:101CA0000200006800F00C000C282CD1FFE743F67E
:101CB0000400C4F2020000684002002823D4FFE7B9
:101CC00043F60000C4F20200006800F002010020A8
:101CD000B0EB510F09D0FFE70498C068012804D089
:101CE000FFE701208DF8170079E243F60001C4F206
:101CF0000201086820F0F800049A126940EAC20064
:101D00000860FFE754E00498C06870B3FFE7002163
:101D1000C4F2472101200860FFF7FEFB0390FFE7B4
:101D200043F60000C4F20200006800F00201002047
:101D3000B0EB510F0CD1FFE7FFF7EEFB0399401A10
:101D4000032804D3FFE703208DF8170047E2E7E7F5
:101D500043F60001C4F20201086820F0F800049A7A
:101D6000126940EAC200086021E00021C4F2472164
:101D700000200860FFF7D0FB0390FFE743F6000068
:101D8000C4F20200006800F002010020B0EB510F25
:101D90000CD0FFE7FFF7C0FB0399401A032804D3D8
:101DA000FFE703208DF8170019E2E7E7FFE7FFE7F9
:101DB000FFE704980078000700284BD5FFE7049858
:101DC000406918B3FFE740F68061C4F24721012063
:101DD0000860FFF7A1FB0390FFE743F67400C4F22D
:101DE0000200006800F002010020B0EB510F0CD19E
:101DF000FFE7FFF791FB0399401A032804D3FFE79D
:101E000003208DF81700EAE1E7E722E040F6806161
:101E1000C4F2472100200860FFF77EFB0390FFE734
:101E200043F67400C4F20200006800F002010020D2
:101E3000B0EB510F0CD0FFE7FFF76EFB0399401A90
:101E4000032804D3FFE703208DF81700C7E1E7E775
:101E5000FFE7FFE7049800784007002840F1CE80B4
:101E6000FFE700208DF8070043F64000C4F20200AF
:101E70000068C000002815D4FFE7FFE700200090AD
:101E800043F64000C4F20200016841F08051016055
:101E9000006800F0805000900098FFE701208DF866
:101EA0000700FFE747F20000C4F200000068C00529
:101EB000002822D4FFE747F20001C4F200010868BD
:101EC00040F480700860FFF727FB0390FFE747F2BC
:101ED0000000C4F200000068C00500280CD4FFE731
:101EE000FFF71AFB0399401A032804D3FFE70320E6
:101EF0008DF8170073E1EAE7FFE7FFE704988068D1
:101F0000012809D1FFE743F67001C4F20201086815
:101F100040F0010008601FE00498806805280DD19A
:101F2000FFE743F67001C4F20201086840F00400C4
:101F30000860086840F0010008600CE043F670019A
:101F4000C4F20201086820F001000860086820F06F
:101F500004000860FFE7FFE7FFE704988068F8B136
:101F6000FFE7FFF7D9FA0390FFE743F67000C4F2EA
:101F70000200006800F002010020B0EB510F0ED10A
:101F8000FFE7FFF7C9FA0399401A41F28931884205
:101F900004D3FFE703208DF8170020E1E5E71EE0FA
:101FA000FFF7BAFA0390FFE743F67000C4F20200AD
:101FB000006800F002010020B0EB510F0ED0FFE7E7
:101FC000FFF7AAFA0399401A41F28931884204D3F3
:101FD000FFE703208DF8170001E1E5E7FFE79DF833
:101FE0000700012809D1FFE743F64001C4F20201CE
:101FF000086820F080500860FFE7FFE704988069D8
:10200000002800F0E880FFE743F60800C4F2020071
:10201000006800F00C00082800F08880FFE70498B2
:10202000806902285FD1FFE76021C4F247210020C8
:102030000860FFF771FA0390FFE743F60000C4F26F
:102040000200006800F000710020B0EB516F0CD06E
:10205000FFE7FFF761FA0399401A032804D3FFE76B
:1020600003208DF81700BAE0E7E70499C869D1F8B2
:1020700020C04B6A8A6A40EA0C0040EA8310D2030F
:102080004FF6FF739A43A2F580321043CA6A40EAC2
:102090000260096B40EA017043F60401C4F20201D8
:1020A00008606021C4F2472101200860FFF734FA7C
:1020B0000390FFE743F60000C4F20200006800F05E
:1020C00000710020B0EB516F0CD1FFE7FFF724FA4D
:1020D0000399401A032804D3FFE703208DF8170063
:1020E0007DE0E7E721E06021C4F24721002008609D
:1020F000FFF712FA0390FFE743F60000C4F2020074
:10210000006800F000710020B0EB516F0CD0FFE7C9
:10211000FFF702FA0399401A032804D3FFE70320CC
:102120008DF817005BE0E7E7FFE753E0049880696C
:10213000012804D1FFE701208DF817004FE043F696
:102140000400C4F20200006802900498806901282B
:102150003AD0FFE7029800F480000499C9698842E8
:1021600032D1FFE7029800F03F000499096A8842E3
:102170002AD1FFE7029847F6C07108400499496ADE
:10218000B0EB811F20D1FFE7029800F440300499A2
:10219000896AC9034FF6FF729143A1F580318842E5
:1021A00012D1FFE7029800F070600499C96AB0EBA1
:1021B000016F09D1FFE7029800F0E0400499096B34
:1021C000B0EB017F04D0FFE701208DF8170006E097
:1021D000FFE7FFE7FFE700208DF81700FFE79DF816
:1021E000170006B080BD000040F29011C2F200015D
:1021F00008680130086040F2A831C2F200010868A6
:102200000130086040F2BC30C2F2000001680131C8
:102210000160006846F29812C0F2570242F6470188
:10222000CBF2A37100FB01204FEAF0004DF66601EE
:10223000C0F21501884208D8FFE740F27811C2F2D7
:102240000001086801300860FFE740F28810C2F220
:1022500000000068012824D1FFE740F27830C2F284
:10226000000001680131016000684BF65002C0F2C5
:102270001E5245F62941CCF28F2100FB01204FEA86
:10228000F0004AF61461C0F24711884208D8FFE70F
:1022900040F27411C2F20001086801300860FFE7E3
:1022A000FFE740F28C10C2F200000068012811D153
:1022B000FFE740F27831C2F200010020086040F2EE
:1022C0007411C2F20001086040F28C11C2F20001E8
:1022D0000860FFE740F2A830C2F20000006840F258
:1022E0002001C2F20001096888420DDBFFE740F2DD
:1022F000A031C2F200010120086040F2A831C2F210
:10230000000100200860FFE77047000080B582B040
:102310000190019805F0C8FA02B080BD81B000902C
:1023200001B0704781B0009001B0704784B0029056
:10233000019100200090FFE7029890F83C000128EE
:1023400004D1FFE702208DF80F0044E0029901203C
:1023500081F83C00FFE7FFE7009820F0FF000199BB
:10236000C96808430090009820F44070019989687A
:1023700008430090009820F4806001994968084360
:102380000090009820F400600199096808430090CB
:10239000009820F480500199096908430090009842
:1023A00020F400500199496908430090009820F4F6
:1023B00080400199C9690843009000980299096812
:1023C0004864FFE70299002081F83C00FFE7002005
:1023D0008DF80F00FFE79DF80F0004B07047000074
:1023E00085B003900291FFE7039890F83C00012824
:1023F00004D1FFE702208DF813007EE0039901204D
:1024000081F83C00FFE7FFE70399022081F83D00D7
:102410000398006840680190039800688068009005
:10242000019820F07000019002980168019808431B
:102430000190019803990968486003980068002199
:10244000C4F2010188423CD0FFE703980068B0F174
:10245000804F36D0FFE70398006840F20041C4F295
:10246000000188422DD0FFE70398006840F6000184
:10247000C4F20001884224D0FFE70398006840F6C8
:102480000041C4F2000188421BD0FFE703980068B6
:1024900040F20041C4F20101884212D0FFE70398E4
:1024A000006844F20001C4F20101884209D0FFE74C
:1024B0000398006841F60001C4F2000188420ED181
:1024C000FFE7009820F08000009002984168009893
:1024D000084300900098039909688860FFE7039912
:1024E000012081F83D00FFE70399002081F83C00BE
:1024F000FFE700208DF81300FFE79DF8130005B0FB
:102500007047000080B582B00090009820B9FFE7C6
:1025100001208DF807003FE0009890F83D0040B999
:10252000FFE70099002081F83C00009800F038F89F
:10253000FFE70099022081F83D00009951F8040B53
:1025400005F050FA0099012081F84600FFE7009954
:10255000012081F83E00009981F83F00009981F840
:102560004000009981F84100FFE7FFE70099012052
:1025700081F84200009981F84300009981F84400F5
:10258000009981F84500FFE70099012081F83D009E
:1025900000208DF80700FFE79DF8070002B080BD1E
:1025A00082B00190019800680021C4F201018842C4
:1025B00012D1FFE7FFE70020009043F64400C4F289
:1025C0000200016841F001010160006800F00100B3
:1025D00000900098FFE7FFE702B0704780B586B033
:1025E0000490039100208DF80B00FFE7049890F809
:1025F0003C00012804D1FFE702208DF81700ABE072
:102600000499012081F83C00FFE7FFE704990220CC
:1026100081F83D000498006880680190019820F0DE
:1026200077000190019820F47F400190019804996F
:1026300009688860039800680090002872D0FFE75E
:10264000009810286ED0FFE7009820286AD0FFE796
:102650000098302866D0FFE70098402855D0FFE763
:102660000098502837D0FFE70098602840D0FFE757
:10267000009870280BD0FFE70098B0F5805F05D078
:10268000FFE70098B0F5005F16D052E055E00498DF
:102690000068039B5A689968DB6805F08DFA049816
:1026A000006880680190019840F0770001900198DF
:1026B00004990968886040E004980068039B5A68A0
:1026C0009968DB6805F078FA04980168886840F436
:1026D0008040886031E004980068039A5168D268AD
:1026E00005F056FC04980068502105F07FFA24E0BC
:1026F00004980068039A5168D26805F0FDFC0498BC
:102700000068602105F072FA17E004980068039AE7
:102710005168D26805F03CFC04980068402105F03F
:1027200065FA0AE0049800680399096805F05EFA02
:1027300003E001208DF80B00FFE70499012081F8E8
:102740003D00FFE70499002081F83C00FFE79DF879
:102750000B008DF81700FFE79DF8170006B080BD4D
:1027600080B584B003900398007F082840F08680ED
:10277000FFE703980C2100F059FF029002980190A6
:1027800040F28410C2F20000006828BBFFE7029804
:1027900040F27C31C2F200010968401AFDF710FFD7
:1027A00041EC100B51EC100B9FED350B53EC102B43
:1027B000FDF797FE41EC100B51EC100BFDF70DFFF0
:1027C00040F29811C2F20001086040F28411C2F296
:1027D0000001012008602DE0029840F27C31C2F235
:1027E00000010968884224D9FFE7029940F27C3051
:1027F000C2F200000068401A40F63F51C0F20301E7
:102800000844FDF7DDFE41EC100B51EC100B9FED81
:102810001C0B53EC102BFDF764FE41EC100B51EC3C
:10282000100BFDF7DAFE40F29811C2F200010860C9
:10283000FFE7FFE740F29810C2F200000068B0F531
:10284000FA7F0DD9FFE740F29811C2F20001002093
:102850000860029040F27C31C2F200010860FFE79C
:10286000019840F27C31C2F2000108600020019022
:1028700040F28411C2F200010860FFE704B080BD9D
:10288000BA490C022B87174080B586B0049003919B
:10289000029200208DF80700FFE7049890F83C00B2
:1028A000012804D1FFE702208DF8170080E0049989
:1028B000012081F83C00FFE7FFE70298B0B9FFE78D
:1028C00004980068039B19685A68DB6805F088FB68
:1028D00004980168886920F00C0088610398826878
:1028E0000498016888691043886156E002980428BA
:1028F00017D1FFE704980068039B19685A68DB68E2
:1029000005F024FC04980168886920F4406088611F
:102910000398826804980168886940EA0220886107
:102920003AE00298082816D1FFE704980068039B54
:1029300019685A68DB6805F03FFC04980168C869AB
:1029400020F00C00C8610398826804980168C86987
:102950001043C8611FE002980C2817D1FFE70498C4
:102960000068039B19685A68DB6805F05BFC0498F3
:102970000168C86920F44060C861039882680498BF
:102980000168C86940EA0220C86103E001208DF8AF
:102990000700FFE7FFE7FFE7FFE7FFE704990020F5
:1029A00081F83C00FFE79DF807008DF81700FFE76E
:1029B0009DF8170006B080BD80B582B000900098E9
:1029C00020B9FFE701208DF807003FE0009890F85C
:1029D0003D0040B9FFE70099002081F83C000098D5
:1029E00000F038F8FFE70099022081F83D000099D7
:1029F00051F8040B04F0F6FF0099012081F846001D
:102A0000FFE70099012081F83E00009981F83F001E
:102A1000009981F84000009981F84100FFE7FFE745
:102A20000099012081F84200009981F84300009943
:102A300081F84400009981F84500FFE700990120E2
:102A400081F83D0000208DF80700FFE79DF80700A2
:102A500002B080BD80B588B0079000200690059038
:102A60000490039002900798006840F60001C4F2B9
:102A70000001884233D1FFE7FFE70020019043F6D1
:102A80004000C4F20200016841F0040101600068E6
:102A900000F0040001900198FFE7FFE7002000909C
:102AA00043F63000C4F20200016841F00201016007
:102AB000006800F0020000900098FFE74FF40070FB
:102AC000029002200390002104910591069040F2AB
:102AD0000040C4F2020002A9FEF720FBFFE708B0A5
:102AE00080BD000080B592B010900F9100208DF84D
:102AF0003B000F9828B9FFE7109890F83E000B9024
:102B00001CE00F98042805D1FFE7109890F83F00CB
:102B10000A9010E00F98082805D1FFE7109890F868
:102B20004000099004E0109890F841000990FFE7F8
:102B300009980A90FFE70A980B90FFE70B988DF829
:102B400033000F9828B9FFE7109890F842000890DA
:102B50001CE00F98042805D1FFE7109890F8430077
:102B6000079010E00F98082805D1FFE7109890F81B
:102B70004400069004E0109890F845000690FFE7A6
:102B800006980790FFE707980890FFE708988DF8E8
:102B900032009DF83300012805D1FFE79DF832008F
:102BA000012804D0FFE701208DF84700E9E00F98E5
:102BB00028B9FFE71099022081F83E001EE00F9827
:102BC000042806D1FFE71099022081F83F00059004
:102BD00012E00F98082806D1FFE71099022081F82B
:102BE0004000049005E01099022081F84100049013
:102BF000FFE704980590FFE70598FFE70F9828B9CD
:102C0000FFE71099022081F842001EE00F98042887
:102C100006D1FFE71099022081F84300039012E0EB
:102C20000F98082806D1FFE71099022081F8440088
:102C3000029005E01099022081F845000290FFE71C
:102C400002980390FFE70398FFE70F9801900C2884
:102C500025D80199DFE801F0072323230E2323233E
:102C6000152323231C0010980168C86840F0020057
:102C7000C86018E010980168C86840F00400C86097
:102C800011E010980168C86840F00800C8600AE0C8
:102C900010980168C86840F01000C86003E0012087
:102CA0008DF83B00FFE79DF83B00002864D1FFE76B
:102CB000109800680F99012204F062FF10980068D4
:102CC0000021C4F2010188423CD0FFE7109800685F
:102CD000B0F1804F36D0FFE71098006840F2004115
:102CE000C4F2000188422DD0FFE71098006840F63A
:102CF0000001C4F20001884224D0FFE71098006868
:102D000040F60041C4F2000188421BD0FFE7109852
:102D1000006840F20041C4F20101884212D0FFE78E
:102D20001098006844F20001C4F20101884209D001
:102D3000FFE71098006841F60001C4F200018842E4
:102D400012D1FFE710980068806800F007000D902E
:102D50000D98062807D0FFE710980168086840F032
:102D600001000860FFE706E010980168086840F07D
:102D700001000860FFE7FFE79DF83B008DF8470082
:102D8000FFE79DF8470012B080BD000080B582B01B
:102D9000019001980068006900F002010020B0EB8A
:102DA000510F28D0FFE701980068C06800F00201C9
:102DB0000020B0EB510F1DD0FFE7019801686FF0C4
:102DC0000200086101990120087701980068806974
:102DD000800720B1FFE70198FFF7C2FC06E00198E9
:102DE00000F070F9019800F0AFFAFFE701990020B8
:102DF0000877FFE7FFE701980068006900F0040129
:102E00000020B0EB910F29D0FFE701980068C0685F
:102E100000F004010020B0EB910F1ED0FFE70198F5
:102E200001686FF004000861019902200877019899
:102E30000068806910F4407F04D0FFE70198FFF735
:102E40008FFC06E0019800F03DF9019800F07CFA53
:102E5000FFE7019900200877FFE7FFE70198006886
:102E6000006900F008010020B0EBD10F28D0FFE787
:102E700001980068C06800F008010020B0EBD10F95
:102E80001DD0FFE7019801686FF008000861019903
:102E90000420087701980068C069800720B1FFE727
:102EA0000198FFF75DFC06E0019800F00BF901982E
:102EB00000F04AFAFFE7019900200877FFE7FFE7F3
:102EC00001980068006900F010010020B0EB111FAC
:102ED00029D0FFE701980068C06800F010010020C9
:102EE000B0EB111F1ED0FFE7019801686FF01000D2
:102EF000086101990820087701980068C06910F4FA
:102F0000407F04D0FFE70198FFF72AFC06E0019814
:102F100000F0D8F8019800F017FAFFE701990020B7
:102F20000877FFE7FFE7019800680069C00780B1F4
:102F3000FFE701980068C068C00748B1FFE7019843
:102F400001686FF001000861019800F06BFBFFE77A
:102F5000FFE7019800680069C1B20020B0EBD11F03
:102F600013D0FFE701980068C068C1B20020B0EB41
:102F7000D11F09D0FFE7019801686FF08000086158
:102F80000198FFF7CBF9FFE7FFE7019800680069B8
:102F900000F040010020B0EB911F14D0FFE7019832
:102FA0000068C06800F040010020B0EB911F09D01C
:102FB000FFE7019801686FF040000861019800F098
:102FC00061FBFFE7FFE701980068006900F020015E
:102FD0000020B0EB511F14D0FFE701980068C068D3
:102FE00000F020010020B0EB511F09D0FFE701984D
:102FF00001686FF0200008610198FFF793F9FFE77F
:10300000FFE702B080BD000080B588B007900020C7
:1030100006900590049003900290079800680021A4
:10302000C4F20101884222D1FFE7FFE700200190AE
:1030300043F63000C4F20200016841F00101016072
:10304000006800F0010001900198FFE74FF4006074
:103050000290022003900020049005900120069029
:103060000020C4F2020002A9FEF758F828E00798F1
:103070000068B0F1804F22D1FFE7FFE70020009009
:1030800043F63000C4F20200016841F00101016022
:10309000006800F0010000900098FFE74FF4004046
:1030A00002900220039000200490059001200690D9
:1030B0000020C4F2020002A9FEF730F8FFE7FFE7A4
:1030C00008B080BD81B0009001B0704780B586B077
:1030D00004900391029200208DF80700FFE7049806
:1030E00090F83C00012804D1FFE702208DF817007A
:1030F00089E00499012081F83C00FFE7FFE702988E
:1031000000900C2800F270800099DFE801F0076D54
:103110006D6D206D6D6D3A6D6D6D53000498006896
:10312000039904F079FD04980168886940F008006B
:10313000886104980168886920F004008861039818
:1031400002690498016888691043886150E0049816
:103150000068039904F0D6FD04980168886940F47A
:103160000060886104980168886920F48060886143
:103170000398026904980168886940EA022088611E
:1031800036E004980068039904F036FE049801685C
:10319000C86940F00800C86104980168C86920F057
:1031A0000400C8610398026904980168C869104363
:1031B000C8611DE004980068039904F097FE049824
:1031C0000168C86940F40060C86104980168C86972
:1031D00020F48060C8610398026904980168C86996
:1031E00040EA0220C86103E001208DF80700FFE7F4
:1031F000FFE70499002081F83C00FFE79DF80700F5
:103200008DF81700FFE79DF8170006B080BD00009D
:1032100080B582B00090009820B9FFE701208DF8BA
:1032200007003FE0009890F83D0040B9FFE70099A3
:10323000002081F83C00009800F038F8FFE7009982
:10324000022081F83D00009951F8040B04F0CAFBFC
:103250000099012081F84600FFE70099012081F8DC
:103260003E00009981F83F00009981F840000099E4
:1032700081F84100FFE7FFE70099012081F8420053
:10328000009981F84300009981F84400009981F881
:103290004500FFE70099012081F83D0000208DF8EE
:1032A0000700FFE79DF8070002B080BD80B58AB037
:1032B00009900020089007900690059004900998C6
:1032C0000068B0F1804F3DD1FFE7FFE70020039099
:1032D00043F64000C4F20200016841F001010160C0
:1032E000006800F0010003900398FFE7FFE700206B
:1032F000029043F63000C4F20200016841F002017E
:103300000160006800F0020002900298FFE70420CC
:103310000490022005900020009006900790012064
:10332000089040F20040C4F2020004A9FDF7F6FE46
:10333000009A1C2001901146FEF78CF90198FEF7C7
:103340007FF9FFE70AB080BD81B0009001B07047FF
:1033500080B58CB00A900991099828B9FFE70A98BE
:1033600090F83E0007901CE00998042805D1FFE77B
:103370000A9890F83F00069010E00998082805D1B7
:10338000FFE70A9890F84000059004E00A9890F84A
:1033900041000590FFE705980690FFE70698079023
:1033A000FFE70798012804D0FFE701208DF82F00E0
:1033B000AFE0099828B9FFE70A99022081F83E009A
:1033C0001EE00998042806D1FFE70A99022081F837
:1033D0003F00049012E00998082806D1FFE70A99F7
:1033E000022081F84000039005E00A99022081F84C
:1033F00041000390FFE703980490FFE70498FFE77C
:103400000A98006809990122019204F0B9FB019819
:103410000A9909680022C4F20102914202900CD07C
:10342000FFE70A9800684FF60041CBF6FE710844AA
:10343000B0FA80F040090290FFE70298C00738B167
:10344000FFE70A980168486C40F400404864FFE7D1
:103450000A9800680021C4F2010188423CD0FFE7CD
:103460000A980068B0F1804F36D0FFE70A980068EC
:1034700040F20041C4F2000188422DD0FFE70A98D3
:10348000006840F60001C4F20001884224D0FFE742
:103490000A98006840F60041C4F2000188421BD03F
:1034A000FFE70A98006840F20041C4F20101884237
:1034B00012D0FFE70A98006844F20001C4F201014B
:1034C000884209D0FFE70A98006841F60001C4F27B
:1034D0000001884212D1FFE70A980068806800F076
:1034E000070008900898062807D0FFE70A980168A7
:1034F000086840F001000860FFE706E00A980168EC
:10350000086840F001000860FFE700208DF82F00F8
:10351000FFE79DF82F000CB080BD000080B586B09D
:1035200005900491059800680499002204F028FB96
:103530000598016801200022C4F201029142039023
:103540000CD0FFE7059800684FF60041CBF6FE71FE
:103550000844B0FA80F040090390FFE70398C007E1
:10356000D8B1FFE7FFE705980068006A41F2111142
:10357000084210D1FFE705980068006A40F2444114
:10358000084207D1FFE705980168486C20F4004025
:103590004864FFE7FFE7FFE7FFE7FFE705980068FC
:1035A000006A41F21111084210D1FFE70598006846
:1035B000006A40F24441084207D1FFE705980168DC
:1035C000086820F001000860FFE7FFE7FFE70498C4
:1035D00028B9FFE70599012081F83E001EE0049814
:1035E000042806D1FFE70599012081F83F000290E9
:1035F00012E00498082806D1FFE70599012081F818
:103600004000019005E00599012081F841000190FA
:10361000FFE701980290FFE70298FFE7002006B05D
:1036200080BD000081B0009001B0704784B003906D
:10363000029100200190029800900C281DD800995A
:10364000DFE801F0071B1B1B0C1B1B1B111B1B1BAB
:10365000160003980068406B01900FE00398006823
:10366000806B01900AE003980068C06B019005E050
:1036700003980068006C019000E0FFE7019804B037
:103680007047000081B0009001B0704782B0019097
:10369000ADF8021002B0704781B0009001B07047E1
:1036A00080B592B011901198006800681090119840
:1036B0000068C0680F901198006840690E90002063
:1036C0000D900C90109800F00F000D900D9888B997
:1036D000FFE79DF84000800600280AD5FFE79DF827
:1036E0003C008006002804D5FFE7119804F07AFF1B
:1036F000E3E1FFE70D98002800F0C280FFE79DF8A6
:103700003800C00738B9FFE7BDF83C0010F4907FDF
:1037100000F0B680FFE79DF84000C00758B1FFE712
:103720009DF83D00C00730B1FFE71199086C40F0EB
:1037300001000864FFE79DF84000400700280BD512
:10374000FFE79DF83800C00730B1FFE71199086C1A
:1037500040F002000864FFE79DF840008007002861
:103760000BD5FFE79DF83800C00730B1FFE711998E
:10377000086C40F004000864FFE79DF84000000773
:10378000002811D5FFE79DF83C008006002805D4ED
:10379000FFE79DF83800C00730B1FFE71199086CCA
:1037A00040F008000864FFE71198006C002866D01C
:1037B000FFE79DF84000800600280AD5FFE79DF846
:1037C0003C008006002804D5FFE7119804F00AFFAA
:1037D000FFE7119800684069C0F380100C901198C1
:1037E000006C0007002804D4FFE70C9800283ED0A6
:1037F000FFE7119804F07CFE1198006840694006CC
:1038000000282FD5FFE7FFE7FFE71198006850E891
:10381000050F20F040000B90FFE70B99119802680C
:1038200042E805100028F0D1FFE7FFE71198806B10
:1038300098B1FFE71198816B48F2A120C0F6000013
:1038400008651198806BFDF72FF928B1FFE71198F3
:10385000806B016D8847FFE703E01198FFF71CFFBD
:10386000FFE703E01198FFF717FFFFE706E0119865
:10387000FFF712FF119900200864FFE7FFE71CE142
:103880001198006B012840F0F880FFE79DF8400098
:10389000C006002840F1F180FFE79DF83C00C0061B
:1038A000002840F1EA80FFE7FFE700200A90119826
:1038B000006800680A901198006840680A900A98A9
:1038C000FFE7119800684069400600287ED5FFE7B1
:1038D0001198806B00684068ADF82600BDF826009E
:1038E000002872D0FFE7BDF826001199898D884223
:1038F0006BDAFFE7BDF826001199C8851198806B37
:10390000C069B0F5807F58D0FFE7FFE7FFE7119867
:10391000006850E8030F20F480700890FFE70899D2
:103920001198026842E803100028F0D1FFE7FFE792
:10393000FFE7FFE71198006850E8050F20F001004D
:103940000790FFE707991198026842E805100028E0
:10395000F0D1FFE7FFE7FFE7FFE71198006850E8C5
:10396000050F20F040000690FFE7069911980268C5
:1039700042E805100028F0D1FFE7FFE71199202069
:1039800081F83E00119900200863FFE7FFE71198D6
:10399000006850E8030F20F010000590FFE705993C
:1039A0001198026842E803100028F0D1FFE7FFE712
:1039B0001198806BFDF702F8FFE71198818DC28D99
:1039C000891A89B2FFF762FEFFE776E01199888DC8
:1039D000C98D401AADF812001198C08D00284BD047
:1039E000FFE7BDF81200002846D0FFE7FFE7FFE73A
:1039F0001198006850E8030F20F490700390FFE7DF
:103A000003991198026842E803100028F0D1FFE7FB
:103A1000FFE7FFE7FFE71198006850E8050F20F087
:103A200001000290FFE702991198026842E8051030
:103A30000028F0D1FFE7FFE71199202081F83E0030
:103A4000119900200863FFE7FFE71198006850E82C
:103A5000030F20F010000190FFE701991198026810
:103A600042E803100028F0D1FFE7FFE71198BDF806
:103A70001210FFF70BFEFFE71FE09DF84000000665
:103A800000280AD5FFE79DF83C000006002804D571
:103A9000FFE7119804F082FF0FE09DF84000400618
:103AA00000280AD5FFE79DF83C004006002804D511
:103AB000FFE7119804F066FDFFE712B080BD00003B
:103AC00080B582B00090009820B9FFE701208DF802
:103AD00007003EE00098806908B1FFE700E0FFE7DB
:103AE000009890F83D0040B9FFE70099002081F868
:103AF0003C00009800F032F8FFE70099242081F89C
:103B00003D0000980168C86820F40050C860009823
:103B100004F01AFE00980168086920F490400861DA
:103B200000980168486920F02A00486100980168FF
:103B3000C86840F40050C860009900200864009AEA
:103B4000202182F83D10009A82F83E108DF807007F
:103B5000FFE79DF8070002B080BD000080B594B07B
:103B6000139000201290119010900F900E901398C7
:103B7000006845F20001C4F20001884240F0C580AF
:103B8000FFE7FFE700200D9043F64000C4F202007B
:103B9000016841F480110160006800F480100D900C
:103BA0000D98FFE7FFE700200C9043F63000C4F2C9
:103BB0000200016841F004010160006800F00400A7
:103BC0000C900C98FFE7FFE700200B9043F63000C5
:103BD000C4F20200016841F008010160006800F0D1
:103BE00008000B900B98FFE74FF480500E900220D6
:103BF00003900F90002007901090032004901190E4
:103C000008200590129040F60000C4F202000EA9B0
:103C10000691FDF783FADDF80CC0049A0598069921
:103C2000079B4FF0040ECDF838E0CDF83CC0109360
:103C30001192129040F60040C4F20200FDF76EFAB5
:103C4000079940F29C10C2F20000089046F2100260
:103C5000C4F2020202604FF0006242608160C16003
:103C60004FF480620261416181614FF48072C261F0
:103C70004FF4003202624162FDF7C8F818B1FFE765
:103C8000FCF794FEFFE7FFE7139840F29C11C2F2A5
:103C90000001816313988863FFE740F2FC10C2F2D1
:103CA0000000029046F2B801C4F2020101604FF038
:103CB00000614160402181600021C1604FF4806259
:103CC0000261416181614FF48072C2614FF48032C0
:103CD00002624162FDF79AF818B1FFE7FCF766FE51
:103CE000FFE7FFE7139840F2FC11C2F200014163C5
:103CF00013988863FFE73520019000221146FDF7F5
:103D0000A9FC0198FDF79CFC3CE01398006844F284
:103D10000041C4F20001884233D1FFE7FFE70020F1
:103D20000A9043F64000C4F20200016841F40031F9
:103D30000160006800F400300A900A98FFE7FFE78E
:103D40000020099043F63000C4F20200016841F0FF
:103D500001010160006800F0010009900998FFE787
:103D60000C200E9002200F90002010900320119044
:103D7000072012900020C4F202000EA9FDF7CEF930
:103D8000FFE7FFE714B080BD80B584B002900191D9
:103D9000ADF80220029890F83E00202828D1FFE7D5
:103DA000019820B1FFE7BDF8020020B9FFE701202C
:103DB0008DF80F0020E0FFE7029890F83C00012802
:103DC00004D1FFE702208DF80F0015E002990120D1
:103DD00081F83C00FFE7FFE70299002008630298A2
:103DE0000199BDF8022004F04DFD8DF80F0003E0AD
:103DF00002208DF80F00FFE79DF80F0004B080BD92
:103E000080B582B0019040F23030C2F2000040F242
:103E10003211C2F200010422FFF7B6FF0020009029
:103E2000FFE70098032845DCFFE7009940F23210D5
:103E3000C2F20000405CFF2837D1FFE70098033052
:103E4000C11700EB917121F00301411A40F23210C9
:103E5000C2F20000405CFE2827D1FFE70098013045
:103E6000C11700EB917121F00301411A40F23210A9
:103E7000C2F20000415C40F23112C2F20002117045
:103E800000990231CA1701EB927222F00302891ADB
:103E9000405C40F23001C2F20001087040F29E31F5
:103EA000C2F2000101200870FFE7FFE7009801302F
:103EB0000090B6E702B080BD81B0009001B07047BD
:103EC00080B58AB008900791ADF81A2005930020BC
:103ED0000290089890F83D00202840F09080FFE77D
:103EE000079820B1FFE7BDF81A0020B9FFE70120CD
:103EF0008DF8270087E0FFE7089890F83C0001283C
:103F000004D1FFE702208DF827007CE0089901200A
:103F100081F83C00FFE7FFE7089900200864089952
:103F2000212081F83D00FDF7F7FA0290BDF81A0054
:103F300008998884BDF81A000899C8840898806890
:103F4000B0F5805F09D1FFE70898006928B9FFE75D
:103F5000002004900798039004E007980490002044
:103F60000390FFE7FFE70899002081F83C00FFE796
:103F7000FFE70898C08C58B3FFE70898029B0599A3
:103F80006A4611608021002204F052FD20B1FFE753
:103F900003208DF8270036E0049858B9FFE703980E
:103FA00000886FF35F200899096848600398023021
:103FB000039008E00498007808990968486004981C
:103FC00001300490FFE70899C88C0138C884D0E715
:103FD0000898029B05996A4611604021002204F06E
:103FE00027FD20B1FFE703208DF827000BE008999B
:103FF000202081F83D0000208DF8270003E00220FA
:104000008DF82700FFE79DF827000AB080BD00006B
:1040100080B586B004900391ADF80A20049890F81A
:104020003D00202874D1FFE7039820B1FFE7BDF8D9
:104030000A0020B9FFE701208DF817006CE0FFE7C8
:10404000049890F83C00012804D1FFE702208DF885
:10405000170061E00499012081F83C00FFE7FFE7C9
:10406000039804990862BDF80A0004998884BDF891
:104070000A000499C884049900200864049A212144
:1040800082F83D1004994A6B48F25D41C0F6000188
:10409000D16304994A6B48F2D941C0F6000111641A
:1040A00004994A6B48F2C121C0F60001D164049919
:1040B000496B086503A8019004980268406B019958
:1040C00009680432BDF80A30FCF758FF049801680B
:1040D0006FF040000860FFE70499002081F83C0081
:1040E000FFE7FFE7FFE70498006850E8050F40F09E
:1040F00080000090FFE700990498026842E80510EC
:104100000028F0D1FFE7FFE700208DF8170003E05B
:1041100002208DF81700FFE79DF8170006B080BD5C
:1041200080B582B0019040F23030C2F2000040F21F
:104130003211C2F200010422FFF726FE02B080BD58
:1041400081B0009001B07047FFE7FEE780B58AB00C
:1041500001F0EEFEADF8260000200490079002F07A
:10416000E9F9049840F25211C2F200010880BDF84A
:10417000260040F24A11C2F2000108800146059172
:10418000992800F04082FFE70598B0F5AA7F00F07B
:104190002081FFE7059841F20551884200F05D82D9
:1041A000FFE7059841F21151884200F02181FFE7B5
:1041B0000598B0F5A95F00F03B81FFE7059841F253
:1041C0002651884200F04481FFE7059841F2815171
:1041D000884200F0E582FFE7059841F202618842DB
:1041E00000F08C82FFE7059842F25301884200F00C
:1041F0008D82FFE7059844F23551884200F03881FE
:10420000FFE7059844F24771884200F0B381FFE769
:10421000059845F21031884200F03981FFE7059892
:1042200045F20841884200F01082FFE7059846F207
:104230006771884200F0A681FFE7059846F60901FC
:10424000884200F01A82FFE7059846F6140188427A
:1042500000F03F81FFE7059847F27551884200F072
:104260009181FFE7059847F28371884200F05381FE
:10427000FFE7059847F28971884200F05B81FFE70C
:10428000059847F29371884200F01183FFE7059883
:1042900047F29671884200F0D082FFE7059848F215
:1042A0003101884200F05681FFE7059848F2573106
:1042B000884200F07D81FFE7059849F2900188422D
:1042C00000F07E81FFE7059849F20231884200F054
:1042D0002D82FFE7059849F22031884200F0BD8128
:1042E000FFE7059849F22531884200F0CE81FFE7CB
:1042F000059849F22731884200F0DF81FFE70598F1
:1043000049F22831884200F0C081FFE7059849F260
:104310002931884200F01A82FFE7059849F23131CD
:10432000884200F0BA81FFE7059849F235318842AA
:1043300000F0B381FFE7059849F23831884200F078
:10434000FD81FFE7059849F24031884200F00F8275
:10435000FFE7059849F24131884200F01082FFE7FB
:10436000059849F28141884200F02282FFE70598D2
:1043700049F28641884200F03E82FFE7059849F203
:104380008741401A0228C0F06082FFE7059849F291
:104390009551884200F0F680FFE705984AF61141F2
:1043A000884200F0BB81FFE705984BF20551884237
:1043B00000F06E82FFE705984BF20951884200F049
:1043C0007682FFE705984CF20551884200F0608242
:1043D00085E240F24C11C2F2000141F20200088075
:1043E0004BF2FA70C0F600009C2105F049FD7FE217
:1043F00040F24C11C2F20001032008804BF2E2713E
:10440000C0F600010791ADF81A0040F20800C2F2B0
:104410000000089008994FF4F070088040F21400F2
:10442000C2F20000089008994FF4A07008805FE283
:1044300040F24C11C2F2000140F2134008804BF2EE
:10444000E570C0F6000007900620ADF81A004FE2B4
:1044500040F24C11C2F2000140F2134008804BF2CE
:10446000EB70C0F6000007900C20ADF81A003FE298
:1044700040F24C11C2F200014FF4805008804BF220
:10448000D450C0F600009C2105F0FAFC30E240F266
:104490004C11C2F2000140F6136008804BF27060CC
:1044A000C0F6000007900220ADF81A0040F20800A4
:1044B000C2F20000089008994FF4F070088040F2B2
:1044C0001400C2F20000089008994FF4A070088010
:1044D0000EE240F24C11C2F2000140F203400880AB
:1044E0004BF2F770C0F6000007900320ADF81A00F9
:1044F00040F20800C2F20000089008994FF4F070F2
:10450000088040F21400C2F20000089008994FF4AD
:10451000A0700880ECE140F24C11C2F2000141F2BF
:10452000021008804BF69600C0F60000902105F0BE
:10453000A7FCDDE140F24C11C2F2000140F2134051
:1045400008804BF62610C0F6000007904120ADF819
:104550001A00CDE140F24C11C2F2000141F21340C9
:1045600008804BF25C20C0F6000007901220ADF8E6
:104570001A00BDE140F24C11C2F2000141F20160AB
:10458000088007E040F24C11C2F2000141F2014004
:104590000880FFE740F27631C2F200010120087086
:1045A0004BF26E20C0F60000702105F015FC9FE173
:1045B00040F24C11C2F2000141F20340088007E0D2
:1045C00040F24C11C2F2000141F213400880FFE7B3
:1045D0004BF2DE20C0F6000007900220ADF81A0072
:1045E00040F20800C2F20000089008994FF4F07001
:1045F000088040F21400C2F20000089008994FF4BD
:10460000A070088074E140F24C11C2F2000141F246
:10461000134008804BF2E020C0F6000007901D20F8
:10462000ADF81A0040F20800C2F2000008900899A4
:104630004FF4F070088040F21400C2F200000890BD
:1046400008994FF4A070088052E140F24C11C2F278
:10465000000141F20400088007E040F24C11C2F270
:10466000000141F204000880FFE74BF2FE20C0F693
:104670000000D82105F004FC3AE140F24C11C2F2EE
:10468000000141F2021008800FE040F24C11C2F22A
:1046900000014FF48850088007E040F24C11C2F24C
:1046A00000014FF480500880FFE74BF2D630C0F68F
:1046B0000000CC2105F0E4FB1AE140F24C11C2F2FB
:1046C000000140F2034008804BF2A240C0F6000017
:1046D00007901E20ADF81A0040F20800C2F2000058
:1046E000089008994FF4C870088040F21400C2F294
:1046F000000008900899F0200880F9E040F24C1181
:10470000C2F2000140F21350088027E040F24C1141
:10471000C2F2000141F2174008801FE040F24C1144
:10472000C2F2000141F21340088017E040F24C1140
:10473000C2F2000140F2034008800FE040F24C1149
:10474000C2F2000140F21340088007E040F24C1131
:10475000C2F2000141F203600880FFE74BF2C04063
:10476000C0F6000007900320ADF81A00C0E040F248
:104770004C11C2F2000141F21340088000E0FFE753
:1047800040F24C11C2F2000140F2134008804BF29B
:10479000C340C0F6000007906520ADF81A00A7E0FE
:1047A00040F24C11C2F2000140F21340088007E0D1
:1047B00040F24C11C2F2000140F207400880FFE7CE
:1047C0004BF22850C0F6000007904520ADF81A00C3
:1047D00040F20800C2F20000089008994FF4F0700F
:1047E000088040F21400C2F20000089008994FF4CB
:1047F000A07008807CE040F24C11C2F2000140F24F
:10480000034008804BF26D50C0F6000007903B203B
:10481000ADF81A0040F20800C2F2000008900899B2
:104820004FF4F070088040F21400C2F200000890CB
:1048300008994FF4A07008805AE040F24C11C2F27F
:10484000000140F20340088007E040F24C11C2F240
:10485000000140F213400880FFE74BF2A850C0F679
:10486000000007902B20ADF81A0040F20800C2F2B9
:104870000000089008994FF4F070088040F214008E
:10488000C2F20000089008994FF4A07008802FE051
:1048900040F24C11C2F2000141F2080008804BF2D4
:1048A0007260C0F60000B02105F0EAFA20E040F2A4
:1048B0004C11C2F200014FF4805008804BF222707C
:1048C000C0F60000C02105F0DBFA40F20800C2F299
:1048D0000000089008994FF4C870088008E040F282
:1048E0001400C2F200000890089900200880FFE739
:1048F00040F24C10C2F200000088C0F3003040F2D9
:104900005011C2F2000108800798A0B1FFE74BF6F2
:104910006710C0F60000092105F05EFA0798BDF99E
:104920001A1005F059FA4BF67010C0F60000062177
:1049300005F052FAFFE70020039001F0D9FF039839
:1049400000F0A8FC40F24A10C2F20000008849F2D0
:10495000884188422FD1FFE740F27530C2F2000053
:104960000021029101704FF6E072084600F0ECF968
:104970000299084601F076FC4FF61F71884219D162
:10498000FFE706208DF819003A200DF119010122E8
:10499000019200F0D5FD019840F24C12C2F20002E3
:1049A000118821F01001118040F27531C2F200012E
:1049B0000870FFE7FFE70AB080BD000081B08DF806
:1049C00003008DF802108DF801209DF8030000F01F
:1049D000F80000029DF8021001F0FC0140EAC1005D
:1049E0009DF8011040EAD10001B0704710B586B0C3
:1049F0008C46864609980899ADF816E0ADF814C0C3
:104A00008DF81320ADF81030ADF80E108DF80D00B4
:104A1000BDF91600EF281DDCFFE7BDF91400B0F565
:104A2000A07F17DAFFE7BDF916009DF80D1001EB26
:104A3000410100EB4100013800280BD4FFE7BDF92C
:104A400014009DF80D1000EBC1000138B0F1FF3FDC
:104A500001DCFFE7AAE000208DF80C00FFE79DF9DC
:104A60000C00052800F3A280FFE79DF90C00052843
:104A700004D1FFE700208DF80B0090E09DF81300B3
:104A800000EB80009DF90C1001444BF67610C0F647
:104A90000000405C8DF80B0000208DF80A00FFE755
:104AA0009DF90A00072879DCFFE79DF80B00C00795
:104AB00080B3FFE79DF80D00012811D1FFE7BDF895
:104AC00016009DF90C100844BDF814109DF90A2039
:104AD0001144BDF8102000B209B200F035F918E019
:104AE000BDF816109DF90C009DF80D3010FB031059
:104AF000BDF814209DF90A1011FB0321BDF8102008
:104B0000EC46CCF8002000B209B21A4600F068F971
:104B1000FFE737E0BDF80E00BDF81010884230D036
:104B2000FFE79DF80D00012811D1FFE7BDF8160041
:104B30009DF90C100844BDF814109DF90A20114489
:104B4000BDF80E2000B209B200F0FEF818E0BDF882
:104B500016109DF90C009DF80D3010FB0310BDF8E8
:104B600014209DF90A1011FB0321BDF80E20EC461C
:104B7000CCF8002000B209B21A4600F031F9FFE784
:104B8000FFE7FFE79DF80B0040088DF80B00FFE7FB
:104B90009DF80A0001308DF80A0081E7FFE7FFE782
:104BA0009DF80C0001308DF80C0058E706B010BDE0
:104BB00080B588B084460A98ADF81EC0ADF81C10C8
:104BC000ADF81A20ADF81830ADF81600BDF9180090
:104BD000BDF91C10401AFBF755FB0090BDF91A00F7
:104BE000BDF91E10401AFBF74DFB0099024600204C
:104BF0009142C8BF0120ADF81400BDF81400C8B13F
:104C0000FFE7BDF81E00ADF81200BDF81C00ADF8BE
:104C10001E00BDF81200ADF81C00BDF81A00ADF87A
:104C20001000BDF81800ADF81A00BDF81000ADF87E
:104C30001800FFE7BDF91E00BDF91A10884219DD02
:104C4000FFE7BDF81E00ADF80E00BDF81A00ADF884
:104C50001E00BDF80E00ADF81A00BDF81C00ADF83E
:104C60000C00BDF81800ADF81C00BDF80C00ADF844
:104C70001800FFE7BDF81A00BDF81E10401AADF885
:104C80000A00BDF91800BDF91C10401AFBF7FAFA2A
:104C9000ADF80800BDF90A0000EBD0704008ADF88F
:104CA0000600BDF91C00BDF91810884204DAFFE7C0
:104CB0000120ADF8040004E04FF6FF70ADF80400E9
:104CC000FFE7FFE7BDF91E00BDF91A10884239DC85
:104CD000FFE7BDF8140048B1FFE7BDF91C00BDF9BE
:104CE0001E10BDF8162000F02FF808E0BDF91E00D8
:104CF000BDF91C10BDF8162000F026F8FFE7BDF83E
:104D00000810BDF80600401AADF80600BDF906000F
:104D1000B0F1FF3F0FDCFFE7BDF80410BDF81C0049
:104D20000844ADF81C00BDF80A10BDF806000844A0
:104D3000ADF80600FFE7FFE7BDF81E000130ADF853
:104D40001E00BFE708B080BD80B582B0ADF8060098
:104D5000ADF80410ADF80220BDF9060000281BD400
:104D6000FFE7BDF90400002816D4FFE7BDF90600EF
:104D700040F21801C2F20001B1F9001088420BDACA
:104D8000FFE7BDF9040040F21601C2F20001B1F9DB
:104D90000010884201DBFFE71FE040F27530C2F2ED
:104DA0000000007838B1FFE7BDF8020004F0FEF81B
:104DB000ADF80200FFE7BDF90620BDF9043010464A
:104DC000194601F031FC40F24410C2F200000088A4
:104DD000BDF8021002F0ECFAFFE702B080BD00005F
:104DE00070B588B084460C98ADF81EC0ADF81C10A4
:104DF000ADF81A20ADF81830ADF8160040F2753055
:104E0000C2F20000007838B1FFE7BDF8160004F0E8
:104E1000CDF8ADF81600FFE7BDF91A00B0F1FF3F7D
:104E20000DDCFFE7BDF81A004042ADF81A00BDF8EE
:104E30001A10BDF81E00401AADF81E00FFE7BDF8BD
:104E40001E00BDF81A100844ADF81400BDF91E008C
:104E5000B0F1FF3F04DCFFE70020ADF81E00FFE7E4
:104E6000BDF9140040F21801C2F20001B1F90010BE
:104E7000884208DDFFE740F21800C2F20000008817
:104E8000ADF81400FFE7BDF81400BDF81E10401A7D
:104E9000ADF81A00BDF91800B0F1FF3F0DDCFFE7D7
:104EA000BDF818004042ADF81800BDF81810BDF864
:104EB0001C00401AADF81C00FFE7BDF81C00BDF84F
:104EC00018100844ADF81400BDF91C00B0F1FF3F04
:104ED00004DCFFE70020ADF81C00FFE7BDF914007B
:104EE00040F21601C2F20001B1F90010884208DD5B
:104EF000FFE740F21600C2F200000088ADF814008F
:104F0000FFE7BDF81400BDF81C10401AADF81800FA
:104F1000BDF91E00BDF91C10BDF81A200244013A6B
:104F2000BDF818300B44013B12B21BB201F07CFB00
:104F300040F2184EC4F2020E4FF48030CEF800005A
:104F40001821C4F2020102914FF48010086040F26F
:104F50004410C2F2000042788DF8132000788DF8DA
:104F600012004FF0E0650D604FF08764CEF800400E
:104F700040F6180CC4F2020C4FF40003CCF80030D9
:104F80009DF8132002F00100400202F0040640EAFE
:104F9000062002F0800240EA420008609DF81320DB
:104FA00002F0080002F0100640EA460002F0200677
:104FB00040EA560002F0400240EA0210CEF800003B
:104FC0009DF8130000F002008001CCF800004FF4BF
:104FD000003203920A600A600A600A600A600A608E
:104FE0000A600A600A600A600A600A600A600220B9
:104FF000086008600D60CEF80040CCF800309DF8E5
:10500000124004F001035B0204F0040543EA0523A7
:1050100004F0800443EA44030B609DF8124004F05E
:10502000080304F0100543EA450304F0200543EAB1
:10503000550304F0400443EA0413CEF800309DF811
:10504000123003F002039B01CCF800300A600A60C2
:105050000A600A600A600A600A600A600A600A6000
:105060000A600A600A600860086010200860BDF9E4
:105070001800BDF91A1088420DDDFFE7BDF81800D1
:10508000ADF81400BDF81A00ADF81800BDF8140012
:10509000ADF81A00FFE79DF817008DF81100BDF874
:1050A00016008DF81000FFE7BDF91800411EADF89D
:1050B00018100128C0F29E80FFE7BDF81A00ADF875
:1050C0001400FFE71821C4F2020100914FF0E065DF
:1050D0000D6040F2184EC4F2020E4FF08764CEF815
:1050E000004040F6180CC4F2020C4FF40003CCF858
:1050F00000309DF8112002F00100400202F0040689
:1051000040EA062002F0800240EA420008609DF872
:10511000112002F0080002F0100640EA460002F0FA
:10512000200640EA560002F0400240EA0210CEF8A3
:1051300000009DF8110000F002008001CCF8000092
:105140004FF4003201920A600A600A600A600A6045
:105150000A600A600A600A600A600A600A600A60FF
:105160000220086008600D60CEF80040CCF80030E6
:105170009DF8104004F001035B0204F0040543EACB
:10518000052304F0800443EA44030B609DF81040BB
:1051900004F0080304F0100543EA450304F0200579
:1051A00043EA550304F0400443EA0413CEF8003008
:1051B0009DF8103003F002039B01CCF800300A6028
:1051C0000A600A600A600A600A600A600A600A608F
:1051D0000A600A600A600A6008600860FFE7BDF8BC
:1051E00014000138ADF81400000400287FF46AAF01
:1051F000FFE759E740F21841C4F2020101200860BC
:1052000040F24C10C2F200000088C00790B1FFE7E6
:1052100040F24A10C2F20000008841F22651884252
:105220001BD1FFE740F29D30C2F200000078C007BA
:1052300098B1FFE740F21800C2F200000088411E5A
:1052400040F21600C2F20000008801380AB203B230
:105250000021084601F0E8F9FFE708B070BD000042
:1052600080B582B0ADF8060040F21800C2F200002E
:10527000B0F9002040F21600C2F20000B0F9003090
:10528000BDF806006946086000210846FFF7A8FD42
:1052900002B080BD80B582B08DF8070040F24C109E
:1052A000C2F2000002889DF8071081EA123101F075
:1052B000010140F25012C2F2000211800088C007C2
:1052C000002849D0FFE740F27630C2F200000078B3
:1052D00098B3FFE740F24A10C2F20000008848F29B
:1052E000473188420AD0FFE740F24A10C2F200007C
:1052F000008845F2522188420CD1FFE740F250105D
:10530000C2F2000001880220002918BF06208DF893
:1053100006000BE040F25010C2F2000001880A20A3
:10532000002918BF08208DF80600FFE701210DF1C4
:105330000602084603F010FC0DE040F25010C2F2E5
:10534000000001882020002918BF212000221146DA
:1053500003F002FCFFE74BE040F24A10C2F200000B
:10536000008801460091B0F5AA7F1FD0FFE70098A2
:1053700045F22041884226D0FFE7009847F293711A
:10538000884220D0FFE7009849F22521401A0228E0
:105390000CD3FFE7009849F22631884213D0FFE78B
:1053A00000984BF2095188420DD018E040F250109D
:1053B000C2F200000188132040EA810081B2072078
:1053C00001F0F6FF14E040F25010C2F20000008835
:1053D00040F0020140F2014001F0EAFF08E040F233
:1053E0005010C2F200000188612001F0E1FFFFE7E8
:1053F00002B080BD83B010B589B00D930C920B91B3
:1054000008900BA806900899069A40F23100C2F263
:105410000000059005F092FA05980790FFE70798BD
:105420000078002800F08780FFE7079800780A28B6
:1054300014D1FFE740F22700C2F20000027840F2E8
:105440007E11C2F20001088800EBC200088040F221
:105450007C11C2F200010020088068E00798007803
:105460000D2801D1FFE761E040F27C10C2F200009C
:105470000490B0F9000040F27E11C2F20001B1F9CF
:105480000010079A127840F22403C2F200031B882E
:1054900040F2A43CC2F2000CBCF800C040F2260E60
:1054A000C2F2000ECDF80CE09EF80040EE46CEF8B9
:1054B0000440CEF800C0FFF799FA039804990078E9
:1054C00000EB4002088800EB4200088040F2B83050
:1054D000C2F200000078C00738B3FFE740F27C104A
:1054E000C2F20000B0F9000040F22601C2F2000151
:1054F000097801EB4102F021A1EB4201884214DD61
:10550000FFE740F22700C2F20000027840F27E116D
:10551000C2F20001088800EBC200088040F27C1152
:10552000C2F2000100200880FFE7FFE7FFE70798CD
:105530000130079073E709B0BDE8104003B0704731
:1055400080B584B0ADF80E0002918DF80720BDF84B
:105550000E009DF90710029A03F0FEFA04B080BD18
:1055600070B59AB084461E98ADF866C0ADF8641068
:105570001892ADF85E30ADF85C0040F24410C2F213
:1055800000000088ADF85600BDF85E00BDF85C1064
:105590004843ADF854000020ADF85200ADF850007B
:1055A00040F27630C2F20000007860B9FFE740F2C6
:1055B0004C10C2F200000088C00720B1FFE72E2087
:1055C000ADF85600FFE7BDF96600BDF96410BDF8FF
:1055D0005E200244013ABDF85C300B44013B12B23C
:1055E0001BB201F021F8FFE7BDF954000128C0F219
:1055F0008084FFE740F24C10C2F200000088C00730
:10560000D8B9FFE740F24010C2F200000088BDF8B0
:105610006610BDF85020114489B201F0C9FE40F275
:105620004210C2F200000088BDF86410BDF852209C
:10563000114489B201F0BCFEFFE740F2184EC4F2FB
:10564000020E4FF48030CEF800001821C4F202019F
:1056500010914FF4801008609DF857008DF84C00B1
:105660009DF856008DF84B004FF0E0650D604FF04F
:105670008764CEF8004040F6180CC4F2020C4FF4D8
:105680000003CCF800309DF84C2002F001004002ED
:1056900002F0040640EA062002F0800240EA4200DE
:1056A00008609DF84C2002F0080002F0100640EA65
:1056B000460002F0200640EA560002F0400240EAAE
:1056C0000210CEF800009DF84C0000F002008001AE
:1056D000CCF800004FF4003211920A600A600A60B0
:1056E0000A600A600A600A600A600A600A600A606A
:1056F0000A600A600220086008600D60CEF8004071
:10570000CCF800309DF84B4004F001035B0204F03C
:10571000040543EA052304F0800443EA44030B60D4
:105720009DF84B4004F0080304F0100543EA4503DC
:1057300004F0200543EA550304F0400443EA04134F
:10574000CEF800309DF84B3003F002039B01CCF8FB
:1057500000300A600A600A600A600A600A600A6033
:105760000A600A600A600A600A600A6008600860ED
:10577000102008600021C4F20201086820F47C10A7
:10578000086040F20041C4F2020108684FF23F0293
:10579000CFF6CF721040086040F60001C4F202015B
:1057A000086820F44040086040F24C10C2F200004B
:1057B00000884006002801D5FFE701E140F24C10C7
:1057C000C2F200000088C00750B9FFE740F24A105B
:1057D000C2F20000008841F28921884253D1FFE7DC
:1057E0001821C4F202010E91012008604FF48032AA
:1057F0000F920A600A600A600A600A600A600A6022
:105800000A600A600A600A600A600A600A600A6048
:105810001023C4F202031A68C2F3402240F6100CAF
:10582000C4F2020CDCF800C00CF0800C42EA9C12BE
:10583000D3F800C00CF4806C42EA1C2240F2104CF9
:10584000C4F2020CDCF800E00EF0080E7244DCF842
:1058500000E00EF0200E42EA5E02DCF800E00EF0FE
:10586000100E42EA4E02DCF800C00CF4806C42EAF2
:105870001C121B6823F0FE0342EA53028DF84F20EE
:10588000086008609BE01821C4F202010B9101201E
:1058900008604FF480320C920A600A600A600A6065
:1058A0000A600A600A600A600A600A600A600A60A8
:1058B0000A600A600A601023C4F20203D3F800C031
:1058C000CCF3402C40F6100EC4F2020EDEF800407D
:1058D00004F080044CEA941C1C6804F480644CEAD4
:1058E000142440F2104CC4F2020CCDF834C0DCF8A1
:1058F000005005F008052C44DCF8005005F02005A8
:1059000044EA5504DCF8005005F0100544EA45046B
:10591000DCF8005005F4806544EA15141D6825F094
:10592000FE0544EA55048DF84A40086008600860A6
:105930000A600A600A600A600A600A600A600A6017
:105940000A600A600A600A600A600A600A601A68EF
:10595000C2F34022DEF800E00EF0800E42EA9E1212
:10596000D3F800E00EF4806E42EA1E22DCF800E07C
:105970000EF0080E7244DCF800E00EF0200E42EA51
:105980005E02DCF800E00EF0100E42EA4E02DCF897
:1059900000C00CF4806C42EA1C121B6803F4807394
:1059A00042EA5302ADF85820086008609DF84A109A
:1059B000BDF8580040EA0120ADF85800FFE7FFE7C6
:1059C00040F24A10C2F20000008841F211518842B0
:1059D00053D1FFE71821C4F20201099101200860A8
:1059E0004FF480320A920A600A600A600A600A6014
:1059F0000A600A600A600A600A600A600A600A6057
:105A00000A600A601023C4F202031A68C2F340223B
:105A100040F6100CC4F2020CDCF800C00CF0800C54
:105A200042EA9C12D3F800C00CF4806C42EA1C22BB
:105A300040F2104CC4F2020CDCF800E00EF0080E4C
:105A40007244DCF800E00EF0200E42EA5E02DCF860
:105A500000E00EF0100E42EA4E02DCF800C00CF43A
:105A6000806C42EA1C121B6823F0FE0342EA5302D8
:105A70008DF84F2008600860FFE7FFE7BDF854008D
:105A8000002800F0E381FFE740F24C10C2F2000072
:105A90000088C006002840F1F480FFE71821C4F216
:105AA000020104910120059008604FF480320692B3
:105AB0000A600A600A600A600A600A600A600A6096
:105AC0000A600A600A600A600A600A600A601023BD
:105AD000C4F202030793D3F800C0CCF3402C40F685
